:030000000204995E
:0C049900787FE4F6D8FD7581200204E0B5
:1000030000000000000000000000000000000000ED
:1000130000000000000000000000000000000000DD
:1000230000000000000000000000000000000000CD
:1000330000000000000000000000000000000000BD
:1000430000000000000000000000000000000000AD
:10005300000000000000000000000000000000009D
:10006300000000000000000000000000000000008D
:10007300000000000000000000000000000000007D
:10008300000000000000000000000000000000006D
:10009300000000000000000000000000000000005D
:1000A300000000000000000000000000000000004D
:1000B300000000000000000000000000000000003D
:1000C300000000000000000000000000000000002D
:1000D300000000000000000000000000000000001D
:1000E300000000000000000000000000000000000D
:1000F30000000000000000000000000000000000FD
:1001030000000000000000000000000000000000EC
:100113000000000848484848487E4848484848087E
:10012300000000000000000000000000606C0C00F4
:10013300F6062024E4242404FC0000000000000050
:1001430000000000000000F090909090FE909090CE
:1001530090F000000000000000000000000000809C
:100163008282828282E2F2BA9E8E82800000000046
:10017300000000000000000000000000000000007C
:10018300000000000000000000000000000000006C
:1001930000000000007E222222222222227E000072
:1001A300000000000000000000000000381E0700EF
:1001B3007F0008090F0948407F000000000000008D
:1001C300000000000000000F040404047F644444A2
:1001D3004447700000000000000000000000000021
:1001E30000000040407F000000000000000000000D
:1001F30000000000000000000000000000000000FC
:1002030000017F0101000000007F49494100000017
:10021300007F404040000000000024000000000078
:1002230000427F40000000000022494936000000E0
:10023300004F4949310000000022494936000000BF
:10024300003E41413E0000000022494936000000C3
:10025300003E41413E000000002649493E000000A7
:100263000038267F200000000022494936000000A4
:10027300003649493600000000000000000000007D
:100283000000000000000000007CA2C2FC0000008F
:10029300007CA2C2FC000000000048000000000037
:1002A3000084FE8000000000004C92927C0000005D
:1002B300007C82827C000000004492926C0000006B
:1002C300007C82827C00000000C4A2928C000000AB
:1002D300009E929262000000006C92926C000000FB
:1002E300004C92927C000000009E929262000000FB
:1002F30000000000000000000000000000000000FB
:1003030000000000000000000000000000000000EA
:1003130000000000000000000000000000000000DA
:1003230000000000000000000000000000000000CA
:1003330000000000000000000000000000000000BA
:1003430000000000000000000000000000000000AA
:10035300000000000000000000000000000000009A
:10036300000000000000000000000000000000008A
:10037300000000000000000000000000000000007A
:10038300000000000000000000000000000000006A
:10039300000000000000000000000000000000005A
:1003A300000000000000000000000000000000004A
:1003B300000000000000000000000000000000003A
:1003C300000000000000000000000000000000002A
:1003D300000000000000000000000000000000001A
:1003E300000000000000000000000000000000000A
:1003F30000000000000000000000000000000000FA
:0406E700C100C1810C
:0706E000AE071FEE70FA22C5
:09060A007F551206337FA07E0F1C
:10061300E4FDFCC3ED9FEC9E5015E4FBFA0BBB001D
:0F062300010AEB64724A70F50DBD00010C80E412
:0106320022A5
:0D06C600C2A4C2A78F80C2A6D2A6D2A422D1
:0D06D300C2A4D2A78F80C2A6D2A6D2A422B4
:10065800C2A4C2A7E4FEC280EF5480C4131313548B
:100668000124FF9281EF25E0FFD2800EBE08E7D279
:03067800A7D2A462
:01067B00225C
:10067C00C2A4D2A7E4FEC280EF5480C41313135457
:10068C000124FF9281EF25E0FFD2800EBE08E7D255
:03069C00A7D2A43E
:01069F002238
:0D06A00024B0FF1206ADE4FF1206AD7F107E
:0A06AD003001030206C612065822AF
:0506B7001206AD7FFFFB
:0A06BC003001030206D312067C226F
:100403007FAE1206A37F401206AD7F2E1206AD7F8C
:10041300811206AD7F321206AD7F821206AD7F8058
:100423001206AD7FA11206AD7FA61206AD7FA812FC
:1004330006AD7F3F1206AD7FAD1206AD7F8E12066D
:10044300AD7FC81206AD7FD31206AD7F401206AD55
:100453007FD51206AD7FF01206AD7FD81206AD7FB1
:10046300051206AD7FD91206AD7FF11206AD7FDA14
:100473001206AD7F121206AD7F911206AD7F3F12B9
:1004830006AD7F3F1206AD7F3F1206AD7F3F1206DA
:06049300AD7FAF0206ADD3
:04063300AC05AB0760
:10063700E4FAEA1206A0E4F9AF031206BCAF04120B
:1006470006BC09B984F20ABA08E87F017E000206EF
:01065700138F
:100525001206A67FB01206B7E4FC7F011206BC0CCA
:10053500BC7EF77FFF1206BC7B017A001206A6EB94
:1005450024B0FF1206B7E4FCE4FF1206BC0CBC7E27
:10055500F77FFF1206BC0BBB00010AEB64074A706C
:10056500DB1206A67FB71206B7E4FC7F801206BC35
:100575000CBC7EF77FFF1206BC7F017E00020613CE
:1005D700E4F50BF50C1206A7E4FCEC1206A0E4FB0D
:1005E700050CE50CAE0B7002050B142403F58274A1
:1005F700003EF583E493FF1206BC0BBB80E20CBC04
:0206070008D811
:0106090022CE
:10058500D290D2917F057E00120613C2A37F0A1274
:100595000613D2A3120613209102C201309102D292
:1005A50001120403E4FD7FFF12060C3090FD7D551A
:1005B50012060A3090FD7DAA12060A3090FD12053A
:1005C5002512060F3090FD1205D712060F2090D484
:0205D50080FBA9
:1004A500020585E493A3F8E493A34003F68001F2E3
:1004B50008DFF48029E493A3F85407240CC8C33358
:1004C500C4540F4420C8834004F456800146F6DF27
:1004D500E4800B01020408102040809006E7E47ECA
:1004E500019360BCA3FF543F30E509541FFEE4931C
:1004F500A360010ECF54C025E060A840B8E493A3E3
:10050500FAE493A3F8E493A3C8C582C8CAC583CA0D
:10051500F0A3C8C582C8CAC583CADFE9DEE780BEC5
:0106EB00000E
:00000001FF
