:030000000204F106
:0C04F100787FE4F6D8FD75812002053804
:1000030000000000000000000000000000000000ED
:1000130000000000000000000000000000000000DD
:1000230000000000000000000000000000000000CD
:1000330000000000000000000000000000000000BD
:1000430000000000000000000000000000000000AD
:10005300000000000000000000000000000000009D
:10006300000000000000000000000000000000008D
:10007300000000000000000000000000000000007D
:10008300000000000000000000000000000000006D
:10009300000000000000000000000000000000005D
:1000A300000000000000000000000000000000004D
:1000B300000000000000000000000000000000003D
:1000C300000000000000000000000000000000002D
:1000D300000000000000000000000000000000001D
:1000E300000000000000000000000000000000000D
:1000F30000000000000000000000000000000000FD
:1001030000000000000000000000000000000000EC
:100113000000000848484848487E4848484848087E
:10012300000000000000000000000000606C0C00F4
:10013300F6062024E4242404FC0000000000000050
:1001430000000000000000F090909090FE909090CE
:1001530090F000000000000000000000000000809C
:100163008282828282E2F2BA9E8E82800000000046
:10017300000000000000000000000000000000007C
:10018300000000000000000000000000000000006C
:1001930000000000007E222222222222227E000072
:1001A300000000000000000000000000381E0700EF
:1001B3007F0008090F0948407F000000000000008D
:1001C300000000000000000F040404047F644444A2
:1001D3004447700000000000000000000000000021
:1001E30000000040407F000000000000000000000D
:1001F30000000000000000000000000000000000FC
:1002030000017F0101000000007F49494100000017
:10021300007F404040000000000024000000000078
:1002230000427F40000000000022494936000000E0
:10023300004F4949310000000022494936000000BF
:10024300003E41413E0000000022494936000000C3
:10025300003E41413E000000002649493E000000A7
:100263000038267F200000000022494936000000A4
:10027300003649493600000000000000000000007D
:100283000000000000000000007CA2C2FC0000008F
:10029300007CA2C2FC000000000048000000000037
:1002A3000084FE8000000000004C92927C0000005D
:1002B300007C82827C000000004492926C0000006B
:1002C300007C82827C00000000C4A2928C000000AB
:1002D300009E929262000000006C92926C000000FB
:1002E300004C92927C000000009E929262000000FB
:1002F30000000000000000000000000000000000FB
:1003030000000000000000000000000000000000EA
:1003130000000000000000000000000000000000DA
:1003230000000000000000000000000000000000CA
:1003330000000000000000000000000000000000BA
:1003430000000000000000000000000000000000AA
:10035300000000000000000000000000000000009A
:10036300000000000000000000000000000000008A
:10037300000000000000000000000000000000007A
:10038300000000000000000000000000000000006A
:10039300000000000000000000000000000000005A
:1003A300000000000000000000000000000000004A
:1003B300000000000000000000000000000000003A
:1003C300000000000000000000000000000000002A
:1003D300000000000000000000000000000000001A
:1003E300000000000000000000000000000000000A
:1003F30000000000000000000000000000000000FA
:04090100C100C181EF
:04084A007FA07E0FFE
:10084E00E4FDFCC3ED9FEC9E5015E4FBFA0BBB00E0
:0F085E00010AEB64724A70F50DBD00010C80E4D5
:01086D002268
:0D08D100C2A4C2A78F80C2A6D2A6D2A422C4
:0D08DE00C2A4D2A78F80C2A6D2A6D2A422A7
:10086E00C2A4C2A7E4FEC280EF5480C41313135473
:10087E000124FF9281EF25E0FFD2800EBE08E7D261
:03088E00A7D2A44A
:010891002244
:10089200C2A4D2A7E4FEC280EF5480C4131313543F
:1008A2000124FF9281EF25E0FFD2800EBE08E7D23D
:0308B200A7D2A426
:0108B5002220
:100825007F15120840E4FF1208407F3F1208407F01
:0B08350075120840E4FF1208407F3FEE
:0A0840003001030208D112086E22F5
:0A08F7003001030208DE120892220D
:100685007FAE1208407FB31208407F911208407F69
:10069500A812083B7FA21208407F441208407FA1A0
:1006A500120840E4FF1208407FA01208407F631241
:1006B50008407FAD1208407F021208407F81120872
:1006C500407F401208407F861208407FBE120840D6
:1006D5007F021208407FBF1208407F0E1208407F3C
:1006E500A41208407F231208407F011208407F248E
:1006F500120840E4FF1208367F3F12083B7FAF0225
:020705000840AA
:100602007F151208367F75120840E4FF120840E495
:10061200FF120840E4F97FFF1208F709B940F77F9B
:10062200027E0012084E7508017F151208367F758A
:10063200120840AF08120840AF081208407F0F129C
:1006420008F77901E4FF1208F709B93FF77FF012C2
:1006520008F77F027E0012084E0508E508C3943FA2
:1006620040C77F151208367F7512083B7F3F12087C
:1006720040E4F97FFF1208F709B940F77F027E00D4
:0306820002084E1D
:10057D00120825E4FCE4FBE4FA75F002EAA4F58226
:10058D0085F08375F080EC1208EBE5822403F5828B
:10059D00E5833400F583E493FF7401A8030880021A
:1005AD00C333D8FCFE5FFF75F002EAA4F58285F037
:1005BD008375F080EC1208EBE5822404F582E58367
:1005CD003400F583E4935EFEEFD394004004790F7D
:1005DD008002E4F9EED3940040034301F0AF011221
:1005ED0008F70AEA644070910BEB640870890CEC13
:0405FD00640870819D
:0106010022D6
:1008B600120825E4FCE4FB7F0F1208F70BBB40F798
:0B08C6000CBC40F17F027E0002084ED7
:1007D900120825E4FCE4FB7FFF1208F70BBB40F786
:1007E900E4FBE4FF1208F70BBB40F70CBC20E67FE3
:0607F900017E0002084E23
:1007FF00120825E4FCE4FB7F0F1208F70BBB40F750
:10080F00E4FB7FF01208F70BBB40F70CBC20E67F30
:06081F00017E0002084EFC
:060707008F088D09AC0310
:10070D007F15120840AF09120840AF041208407F50
:10071D0075120840AF0B120840AF0C120840E4FBF5
:10072D00E50CC3950BFFE49400CF2401CF3400FEFC
:10073D00EBC39FEE6480F8748098502DE4FAECC3FF
:10074D009509FFE49400CF2401CF3400FEEAC39F46
:10075D00EE6480F8748098500DAF081208F7AF085A
:10076D001208F70A80D80B80B77F027E0002084E70
:10040300E4F50B750C3F7B03FD7FFF120707E4F553
:100413000B750C3F7B077D047FEE120707E4F50B9A
:10042300750C3F7B0B7D087FDD120707E4F50B7529
:100433000C3F7B0F7D0C7FCC120707E4F50B750C8B
:100443003F7B137D107FBB120707E4F50B750C3F51
:100453007B177D147FAA120707E4F50B750C3F7B0E
:100463001B7D187F99120707E4F50B750C3F7B1F63
:100473007D1C7F88120707E4F50B750C3F7B237DFA
:10048300207F77120707E4F50B750C3F7B277D244C
:100493007F66120707E4F50B750C3F7B2B7D287FE6
:1004A30055120707E4F50B750C3F7B2F7D2C7F441A
:1004B300120707E4F50B750C3F7B337D307F331256
:1004C3000707E4F50B750C3F7B377D347F2212075A
:1004D30007E4F50B750C3F7B3B7D387F1112070753
:0E04E300E4F50B750C3F7B3F7D3CFF020707E5
:10077D00D290D2917F057E0012084EC2A37F0A123D
:10078D00084ED2A312084E209102C201309102D21E
:10079D00011206851208B612084A3090FD1207D9CB
:1007AD0012084A3090FD1207FF12084A3090FD12D0
:1007BD00040312084A3090FD12060212084A3090C6
:0C07CD00FD12057D12084A2090CA80FB36
:1004FD0002077DE493A3F8E493A34003F68001F291
:10050D0008DFF48029E493A3F85407240CC8C333FF
:10051D00C4540F4420C8834004F456800146F6DFCE
:10052D00E4800B0102040810204080900901E47E54
:10053D00019360BCA3FF543F30E509541FFEE493C3
:10054D00A360010ECF54C025E060A840B8E493A38A
:10055D00FAE493A3F8E493A3C8C582C8CAC583CAB5
:10056D00F0A3C8C582C8CAC583CADFE9DEE780BE6D
:0109050000F1
:0C08EB00A42582F582E5F03583F5832218
:00000001FF
