:0300000002049E59
:0C049E00787FE4F6D8FD7581200204E5AB
:1000030000000000000000000000000000000000ED
:1000130000000000000000000000000000000000DD
:1000230000000000000000000000000000000000CD
:1000330000000000000000000000000000000000BD
:1000430000000000000000000000000000000000AD
:10005300000000000000000000000000000000009D
:10006300000000000000000000000000000000008D
:10007300000000000000000000000000000000007D
:10008300000000000000000000000000000000006D
:10009300000000000000000000000000000000005D
:1000A300000000000000000000000000000000004D
:1000B300000000000000000000000000000000003D
:1000C300000000000000000000000000000000002D
:1000D300000000000000000000000000000000001D
:1000E300000000000000000000000000000000000D
:1000F30000000000000000000000000000000000FD
:1001030000000000000000000000000000000000EC
:100113000000000848484848487E4848484848087E
:10012300000000000000000000000000606C0C00F4
:10013300F6062024E4242404FC0000000000000050
:1001430000000000000000F090909090FE909090CE
:1001530090F000000000000000000000000000809C
:100163008282828282E2F2BA9E8E82800000000046
:10017300000000000000000000000000000000007C
:10018300000000000000000000000000000000006C
:1001930000000000007E222222222222227E000072
:1001A300000000000000000000000000381E0700EF
:1001B3007F0008090F0948407F000000000000008D
:1001C300000000000000000F040404047F644444A2
:1001D3004447700000000000000000000000000021
:1001E30000000040407F000000000000000000000D
:1001F30000000000000000000000000000000000FC
:1002030000017F0101000000007F49494100000017
:10021300007F404040000000000024000000000078
:1002230000427F40000000000022494936000000E0
:10023300004F4949310000000022494936000000BF
:10024300003E41413E0000000022494936000000C3
:10025300003E41413E000000002649493E000000A7
:100263000038267F200000000022494936000000A4
:10027300003649493600000000000000000000007D
:100283000000000000000000007CA2C2FC0000008F
:10029300007CA2C2FC000000000048000000000037
:1002A3000084FE8000000000004C92927C0000005D
:1002B300007C82827C000000004492926C0000006B
:1002C300007C82827C00000000C4A2928C000000AB
:1002D300009E929262000000006C92926C000000FB
:1002E300004C92927C000000009E929262000000FB
:1002F30000000000000000000000000000000000FB
:1003030000000000000000000000000000000000EA
:1003130000000000000000000000000000000000DA
:1003230000000000000000000000000000000000CA
:1003330000000000000000000000000000000000BA
:1003430000000000000000000000000000000000AA
:10035300000000000000000000000000000000009A
:10036300000000000000000000000000000000008A
:10037300000000000000000000000000000000007A
:10038300000000000000000000000000000000006A
:10039300000000000000000000000000000000005A
:1003A300000000000000000000000000000000004A
:1003B300000000000000000000000000000000003A
:1003C300000000000000000000000000000000002A
:1003D300000000000000000000000000000000001A
:1003E300000000000000000000000000000000000A
:1003F30000000000000000000000000000000000FA
:0406F200C100C18101
:0706EB00AE071FEE70FA22BA
:090615007F5512063E7FA07E0F06
:10061E00E4FDFCC3ED9FEC9E5015E4FBFA0BBB0012
:0F062E00010AEB64724A70F50DBD00010C80E407
:01063D00229A
:0D06D100C2A4C2A78F80C2A6D2A6D2A422C6
:0D06DE00C2A4D2A78F80C2A6D2A6D2A422A9
:10066300C2A4C2A7E4FEC280EF5480C41313135480
:100673000124FF9281EF25E0FFD2800EBE08E7D26E
:03068300A7D2A457
:010686002251
:10068700C2A4D2A7E4FEC280EF5480C4131313544C
:100697000124FF9281EF25E0FFD2800EBE08E7D24A
:0306A700A7D2A433
:0106AA00222D
:0D06AB0024B0FF1206B87F021206B87F10BF
:0A06B8003001030206D1120663228E
:0506C2001206B87FFFE5
:0A06C7003001030206DE120687224E
:100403007FAE1206B8E4FF1206B37F401206B87F30
:100413002E1206B87F811206B87F321206B87F8289
:100423001206B87F801206B87FA11206B87FA61203
:1004330006B87FA81206B87F3F1206B87FAD120632
:10044300B87F8E1206B87FC81206B87FD31206B8DB
:100453007F401206B87FD51206B87FF01206B87F28
:10046300D81206B87F051206B87FD91206B87FF1F5
:100473001206B87FDA1206B87F121206B87F9112FD
:1004830006B87F3F1206B87F3F1206B87F3F1206B9
:0B049300B87F3F1206B87FAF0206B82A
:04063E00AC05AB0755
:10064200E4FAEA1206ABE4F9AF031206C7AF0412EA
:1006520006C709B984F20ABA08E87F017E000206D9
:010662001E79
:10052A00E4FF1206B37FB01206C2E4FC7F01120692
:10053A00C70CBC7EF77FFF1206C77B017A00E4FF77
:10054A001206B3EB24B0FF1206C2E4FCE4FF120663
:10055A00C70CBC7EF77FFF1206C70BBB00010AEB74
:10056A0064074A70D9E4FF1206B37FB71206C2E4E1
:10057A00FC7F801206C70CBC7EF77FFF1206C77F7E
:06058A00017E0002061EC6
:1005E200E4F50BF50C1206B1E4FCEC1206ABE4FBED
:1005F200050CE50CAE0B7002050B142403F5827496
:10060200003EF583E493FF1206C70BBB80E20CBCED
:0206120008D806
:0106140022C3
:10059000D290D2917F057E0012061EC2A37F0A125E
:1005A000061ED2A312061E209102C201309102D271
:1005B00001120403E4FD7FFF1206173090FD7D5504
:1005C0001206153090FD7DAA1206153090FD120519
:1005D0002A12061A3090FD1205E212061A2090D453
:0205E00080FB9E
:1004AA00020590E493A3F8E493A34003F68001F2D3
:1004BA0008DFF48029E493A3F85407240CC8C33353
:1004CA00C4540F4420C8834004F456800146F6DF22
:1004DA00E4800B01020408102040809006F2E47EBA
:1004EA00019360BCA3FF543F30E509541FFEE49317
:1004FA00A360010ECF54C025E060A840B8E493A3DE
:10050A00FAE493A3F8E493A3C8C582C8CAC583CA08
:10051A00F0A3C8C582C8CAC583CADFE9DEE780BEC0
:0106F6000003
:00000001FF
