:0300000002029E5B
:0C029E00787FE4F6D8FD7581200202E5AF
:1000030000000000000000000000000000000000ED
:100013000000000848484848487E4848484848087F
:10002300000000000000000000000000606C0C00F5
:10003300F6062024E4242404FC0000000000000051
:1000430000000000000000F090909090FE909090CF
:1000530090F000000000000000000000000000809D
:100063008282828282E2F2BA9E8E82800000000047
:10007300000000000000000000000000000000007D
:10008300000000000000000000000000000000006D
:1000930000000000007E222222222222227E000073
:1000A300000000000000000000000000381E0700F0
:1000B3007F0008090F0948407F000000000000008E
:1000C300000000000000000F040404047F644444A3
:1000D3004447700000000000000000000000000022
:1000E30000000040407F000000000000000000000E
:1000F30000000000000000000000000000000000FD
:1001030000017F0101000000007F49494100000018
:10011300007F404040000000000024000000000079
:1001230000427F40000000000022494936000000E1
:10013300004F4949310000000022494936000000C0
:10014300003E41413E0000000022494936000000C4
:10015300003E41413E000000002649493E000000A8
:100163000038267F200000000022494936000000A5
:10017300003649493600000000000000000000007E
:100183000000000000000000007CA2C2FC00000090
:10019300007CA2C2FC000000000048000000000038
:1001A3000084FE8000000000004C92927C0000005E
:1001B300007C82827C000000004492926C0000006C
:1001C300007C82827C00000000C4A2928C000000AC
:1001D300009E929262000000006C92926C000000FC
:1001E300004C92927C000000009E929262000000FC
:1001F30000000000000000000000000000000000FC
:0404F400C100C18101
:0704ED00AE071FEE70FA22BA
:090442007F551204157FA07E0F06
:10044B00E4FDFCC3ED9FEC9E5015E4FBFA0BBB00E7
:0F045B00010AEB64724A70F50DBD00010C80E4DC
:01046A00226F
:0D04D300C2A4C2A78F80C2A6D2A6D2A422C6
:0D04E000C2A4D2A78F80C2A6D2A6D2A422A9
:10046B00C2A4C2A7E4FEC280EF5480C4131313547A
:10047B000124FF9281EF25E0FFD2800EBE08E7D268
:03048B00A7D2A451
:01048E00224B
:10048F00C2A4D2A7E4FEC280EF5480C41313135446
:10049F000124FF9281EF25E0FFD2800EBE08E7D244
:0304AF00A7D2A42D
:0104B2002227
:0704B3007F041204BA7F1060
:0A04BA003001030204D312046B2288
:0504C4001204BA7FFFE5
:0A04C9003001030204E012048F2248
:100203007FAE1204BAE4FF1204B57F401204BA7F32
:100213002E1204BA7F811204BA7F321204BA7F828B
:100223001204BA7F801204BA7FA11204BA7FA61205
:1002330004BA7FA81204BA7F3F1204BA7FAD120436
:10024300BA7F8E1204BA7FC81204BA7FD31204BADB
:100253007F401204BA7FD51204BA7FF01204BA7F2A
:10026300D81204BA7F051204BA7FD91204BA7FF1F7
:100273001204BA7FDA1204BA7F121204BA7F9112FF
:1002830004BA7F3F1204BA7F3F1204BA7F3F1204BD
:0B029300BA7F3F1204BA7FAF0204BA2A
:04041500AC05AB0780
:10041900E4FAEA24B0FF1204BAE4FF1204B5E4F9DD
:10042900AF031204C9AF041204C909B984F20ABAA4
:0904390008E07F017E0002044B83
:10032A001204B37FB41204C4E4FC7F011204C90CA2
:10033A00BC7EF77FFF1204C97B057A001204B3EB77
:10034A0024B0FF1204C4E4FCE4FF1204C90CBC7E0E
:10035A00F77FFF1204C90BBB00010AEB64074A705E
:10036A00DB1204B37FB71204C4E4FC7F801204C911
:10037A000CBC7EF77FFF1204C97F017E0002044B8A
:1003DC00E4F50BF50C1204B37C04EC24B0FF12040E
:1003EC00BA1204B3E4FB050CE50CAE0B7002050B62
:1003FC00142403F58274003EF583E493FF1204C9C0
:08040C000BBB80E20CBC08D21E
:0104140022C5
:10038A00D290D2917F057E0012044BC2A37F0A123B
:10039A00044BD2A312044B209102C201309102D223
:1003AA0001120203E4FD7FFF1204443090FD7D55E3
:1003BA001204423090FD7DAA1204423090FD1203CD
:1003CA002A1204473090FD1203DC1204472090D40D
:0203DA0080FBA6
:1002AA0002038AE493A3F8E493A34003F68001F2DD
:1002BA0008DFF48029E493A3F85407240CC8C33355
:1002CA00C4540F4420C8834004F456800146F6DF24
:1002DA00E4800B01020408102040809004F4E47EBC
:1002EA00019360BCA3FF543F30E509541FFEE49319
:1002FA00A360010ECF54C025E060A840B8E493A3E0
:10030A00FAE493A3F8E493A3C8C582C8CAC583CA0A
:10031A00F0A3C8C582C8CAC583CADFE9DEE780BEC2
:0104F8000003
:00000001FF
