:03000000020633C2
:0C063300787FE4F6D8FD75812002067A7D
:1000030000000000000000000000000000000000ED
:1000130000000000000000000000000000000000DD
:1000230000000000000000000000000000000000CD
:1000330000000000000000000000000000000000BD
:1000430000000000000000000000000000000000AD
:10005300000000000000000000000000000000009D
:10006300000000000000000000000000000000008D
:10007300000000000000000000000000000000007D
:10008300000000000000000000000000000000006D
:10009300000000000000000000000000000000005D
:1000A300000000000000000000000000000000004D
:1000B300000000000000000000000000000000003D
:1000C300000000000000000000000000000000002D
:1000D300000000000000000000000000000000001D
:1000E300000000000000000000000000000000000D
:1000F30000000000000000000000000000000000FD
:1001030000000000000000000000000000000000EC
:100113000000000848484848487E4848484848087E
:10012300000000000000000000000000606C0C00F4
:10013300F6062024E4242404FC0000000000000050
:1001430000000000000000F090909090FE909090CE
:1001530090F000000000000000000000000000809C
:100163008282828282E2F2BA9E8E82800000000046
:10017300000000000000000000000000000000007C
:10018300000000000000000000000000000000006C
:1001930000000000007E222222222222227E000072
:1001A300000000000000000000000000381E0700EF
:1001B3007F0008090F0948407F000000000000008D
:1001C300000000000000000F040404047F644444A2
:1001D3004447700000000000000000000000000021
:1001E30000000040407F000000000000000000000D
:1001F30000000000000000000000000000000000FC
:1002030000017F0101000000007F49494100000017
:10021300007F404040000000000024000000000078
:1002230000427F40000000000022494936000000E0
:10023300004F4949310000000022494936000000BF
:10024300003E41413E0000000022494936000000C3
:10025300003E41413E000000002649493E000000A7
:100263000038267F200000000022494936000000A4
:10027300003649493600000000000000000000007D
:100283000000000000000000007CA2C2FC0000008F
:10029300007CA2C2FC000000000048000000000037
:1002A3000084FE8000000000004C92927C0000005D
:1002B300007C82827C000000004492926C0000006B
:1002C300007C82827C00000000C4A2928C000000AB
:1002D300009E929262000000006C92926C000000FB
:1002E300004C92927C000000009E929262000000FB
:1002F30000000000000000000000000000000000FB
:1003030000000000000000000000000000000000EA
:1003130000000000000000000000000000000000DA
:1003230000000000000000000000000000000000CA
:1003330000000000000000000000000000000000BA
:1003430000000000000000000000000000000000AA
:10035300000000000000000000000000000000009A
:10036300000000000000000000000000000000008A
:10037300000000000000000000000000000000007A
:10038300000000000000000000000000000000006A
:10039300000000000000000000000000000000005A
:1003A300000000000000000000000000000000004A
:1003B300000000000000000000000000000000003A
:1003C300000000000000000000000000000000002A
:1003D300000000000000000000000000000000001A
:1003E300000000000000000000000000000000000A
:1003F30000000000000000000000000000000000FA
:0409AD00C100C18143
:0709A600AE071FEE70FA22FC
:04089A007FA07E0FAE
:10089E00E4FDFCC3ED9FEC9E5015E4FBFA0BBB0090
:0F08AE00010AEB64724A70F50DBD00010C80E485
:0108BD002218
:0D098000C2A4C2A78F80C2A6D2A6D2A42214
:0D098D00C2A4D2A78F80C2A6D2A6D2A422F7
:1008BE00C2A4C2A7E4FEC280EF5480C41313135423
:1008CE000124FF9281EF25E0FFD2800EBE08E7D211
:0308DE00A7D2A4FA
:0108E10022F4
:1008E200C2A4D2A7E4FEC280EF5480C413131354EF
:1008F2000124FF9281EF25E0FFD2800EBE08E7D2ED
:03090200A7D2A4D5
:0109050022CF
:07096F007F3F12093F7F5C8E
:0A0976003001030209801208BE22BE
:100929007F151209767F1C12093F7F5B12093F7FF1
:0609390075120976E4FFCF
:0A093F0030010302098D1208E222C4
:1004F8007FFD1209767F1212093F7FAE1209767FBF
:10050800B31209767F9112093F7FCA1209767F3F9D
:1005180012093F7FA212093A7FA112093A7FA0125D
:1005280009767F1412093F7F1112093F7FAB120928
:10053800767F0112093F7FB41209767FA012093F26
:100548007FFD12093F7FC11209767F9F12093F7F05
:10055800C71209767F0F12093F7FB11209767FE231
:1005680012093F7FD11209767F8212093F7F20123C
:10057800093F7FBB1209767F1F12093F7FB6120918
:10058800767F0812093F7FBE1209767F0712093F5E
:0A0598007FA61209767FAF020976F4
:04084400AC05AB074D
:100848007F1512093A7F771209357F7F120971E403
:10085800FAE4F9AF0312093F09B978F7AF041209AE
:0C0868003F0ABA80EC7F017E0002089E6F
:1007870012092912096FE4FC7FFF12093F7FFF124C
:10079700093F0CBC40F2E4FB7FF012093FE4FF1273
:1007A700093FE4FCE4FF12093FE4FF12093F0CBCD8
:1007B7003EF2E4FF12093F7F0F12093F0BBB3ED801
:1007C700E4FC7FFF12093F7FFF12093F0CBC40F298
:0707D7007F017E0002089E75
:1009060012092912096FE4FCE4FB7FF012093F7F0C
:10091600F012093F0BBB40F20CBC40EC7F017E009D
:0309260002089E26
:1007DE0012092912096FE4FCE4FB7FFF12093F7F27
:1007EE00FF12093F0BBB40F2E4FBE4FF12093FE4AA
:1007FE00FF12093F0BBB40F20CBC20DC7F017E00D8
:03080E0002089E3F
:1008110012092912096FE4FCE4FB7FF012093F7F02
:10082100F012093F0BBB40F2E4FB7F0F12093F7F3F
:100831000F12093F0BBB40F20CBC20DC7F017E0094
:0308410002089E0C
:100874007F1512093A7F771209357F7F120971E4D7
:10088400FCE4FBE4FF12093FE4FF12093F0BBB78D1
:05089400F20CBC80EC39
:01089900223C
:10094900AC05AB077F15120976AF0312093FAF0457
:0309590002093F51
:10095C00AC05AB077F75120976AF0312093FAF04E4
:03096C0002093F3E
:0606BF008F088D09A9035C
:1006C500E509241CFFE9241CFD120949AD0CAF0BFB
:1006D50012095C7F5C120976E4FCE50CC3950BFFFF
:1006E500E49400CF2401CF3400FEECC39FEE648078
:1006F500F8748098502DE4FBE9C39509FFE4940054
:10070500CF2401CF3400FEEBC39FEE6480F87480E4
:1007150098500DAF0812093FAF0812093F0B80D85A
:030725000C80B78E
:0107280022AE
:1005A2007D4B7F2C1209497D3FE4FF12095C7F5C81
:1005B200120976E4FCE4FBE4FA75F002EAA4F5829F
:1005C20085F08375F080EC12099AE5822403F582A6
:1005D200E5833400F583E493FF7401A803088002E5
:1005E200C333D8FCFE5FFF75F002EAA4F58285F002
:1005F2008375F080EC12099AE5822404F582E58382
:100602003400F583E4935ED394004004790F8002B2
:10061200E4F9EFD3940040034301F0AF0112093F24
:100622000ABA40950BEB6408708D0CEC6408708577
:0106320022A5
:10040300E4F50B750C3F7B03FD7FFF1206BFE4F59C
:100413000B750C3F7B077D047FEE1206BFE4F50BE3
:10042300750C3F7B0B7D087FDD1206BFE4F50B7572
:100433000C3F7B0F7D0C7FCC1206BFE4F50B750CD4
:100443003F7B137D107FBB1206BFE4F50B750C3F9A
:100453007B177D147FAA1206BFE4F50B750C3F7B57
:100463001B7D187F991206BFE4F50B750C3F7B1FAC
:100473007D1C7F881206BFE4F50B750C3F7B237D43
:10048300207F771206BFE4F50B750C3F7B277D2495
:100493007F661206BFE4F50B750C3F7B2B7D287F2F
:1004A300551206BFE4F50B750C3F7B2F7D2C7F4463
:1004B3001206BFE4F50B750C3F7B337D307F33129F
:1004C30006BFE4F50B750C3F7B377D347F221206A4
:1004D300BFE4F50B750C3F7B3B7D387F111206BFE4
:1004E300E4F50B750C3F7B3F7D3CFF1206BF7F019C
:0504F3007E0002089EDE
:100729007589017F057E0012089EC2A37F0A1208FF
:100739009ED2A312089E209102C201309102D201D9
:100749001204F812090612089A3090FD1207DE12F7
:10075900089A3090FD12081112089A3090FD12047F
:100769000312089A3090FD12078712089A3090FDFB
:0E0779001208741205A212089A2090C780FB85
:10063F00020729E493A3F8E493A34003F68001F2A1
:10064F0008DFF48029E493A3F85407240CC8C333BC
:10065F00C4540F4420C8834004F456800146F6DF8B
:10066F00E4800B01020408102040809009ADE47E65
:10067F00019360BCA3FF543F30E509541FFEE49380
:10068F00A360010ECF54C025E060A840B8E493A347
:10069F00FAE493A3F8E493A3C8C582C8CAC583CA72
:1006AF00F0A3C8C582C8CAC583CADFE9DEE780BE2A
:0109B1000045
:0C099A00A42582F582E5F03583F5832268
:00000001FF
